:10000000FDC917CA17CA15CA14CA13CA12CA11CA17
:1000100010CA5FCA0ECA0DCA0CCA0BCA0ACA09CADC
:1000200008CA07CA06CA0000FE010000E0FF1F0060
:1000300000F8FF7F0000FE00FC01001F00E00380CD
:100040000F00C007C00700800FE00300001FE001A1
:1000500000001EE00000001CF00000003CF000006A
:10006000003CF00000003CF00000003CF00000000C
:100070003CE00000001CE00100001EE00300001F47
:10008000C00700800F800F00C007001F00E00300C2
:10009000FE00FC0100F8FF7F0000E0FF1F000000F1
:1000A000FE01000000000000000000000000000051
:1000B00000001000104000F0FF3FC007F0FF3F803D
:1000C00007F0FF1F800F70000F001F70800F001ED1
:1000D000708007001E708007001C708007001C7075
:1000E000C003003C70C003003870C003003870C00B
:1000F00003003870C0030038708007003C70800730
:10010000001C708007001C70000F001E70001F0094
:100110001F70003E800F7000FCF0077000F8FF03B6
:100120000000F0FF010000803F0000000000000020
:1001300000000000000000000000000000000000BF
:1001400000FE7F0000000000F0FFFF0F0000000035
:10015000FEFFFF7F00000080FFFFFFFF010000E0C7
:10016000FFFFFFFF070000F8FF03C0FF1F0000FCB8
:100170003F0000FC3F0000FF070000E0FF0080FFA1
:1001800001000080FF01C07F00000000FF03E03F8E
:1001900000000000FC07E01F00000000F80FF00F57
:1001A00000000000F00FF80700000000E01FF80357
:1001B00000000000C01FFC0300000000C03FFC0165
:1001C00000000000803FFC0100000000803FFE01B5
:1001D00000000000807FFE0000000000007FFE00A5
:1001E00000000000007FFE0000000000007FFE0015
:1001F00000000000007FFE0000000000007FFE0005
:1002000000000000007FFE0000000000007FFE01F3
:1002100000000000807FFC0100000000803FFC0126
:1002200000000000803FFC0300000000C03FF80316
:1002300000000000C01FF80700000000E01FF00FE2
:1002400000000000F00FE01F00000000F807E03F92
:1002500000000000FC07C07F00000000FE0380FFDC
:1002600001000080FF0100FF070000E0FF0000FC2C
:100270003F0000FC3F0000F8FF03C0FF1F0000E04C
:10028000FFFFFFFF07000080FFFFFFFF01000000EE
:10029000FEFFFF7F00000000F0FFFF0F00000000E6
:1002A00000FE7F00000000000000000000000000D1
:1002B000000000000000000000000000000000003E
:1002C000000000000000000000000000000000002E
:1002D000000000000000000000000000000000001E
:1002E000000000000000000000000000000000000E
:1002F00000000000000000000000000000000000FE
:1003000000000000000000000000000000000000ED
:1003100000000000000000000000000000000000DD
:100320000000000000000000000000000000FEFFD0
:10033000FFFFFFFFFF7FFEFFFFFFFFFFFF7FFEFFCF
:10034000FFFFFFFFFF7FFEFFFFFFFFFFFF7FFEFFBF
:10035000FFFFFFFFFF7FFEFFFFFFFFFFFF7FFEFFAF
:10036000FFFFFFFFFF7F0000000000000000000013
:10037000000000000000000000000000000000007D
:10038000000000000000000000000000000000006D
:10039000000000000000000000000000000000005D
:1003A000000000000000000000000000000000004D
:1003B000000000000000000000000000000000003D
:1003C000000000000000000000000000000000002D
:1003D000000000000000000000000000000000001D
:1003E000000000000000000000000000000000000D
:1003F00000000000000000000000000000000000FD
:1004000000000000000000000000000000000000EC
:1004100000000000FF7F001C000000F0FF7F003E96
:10042000000000FCFF7F00FE000000FFFF7F00FFD8
:10043000010080FFFF7F80FF0000C0FFFF7F807F03
:100440000000E0FFFF7FC07F0000F0FF007FE03F83
:100450000000F81F007FE01F0000FC0F007FF01F6E
:100460000000FC07007FF00F0000FE03007FF8078C
:100470000000FE01007FF8070000FF01007FF80385
:100480000000FF00007FFC030080FF00007FFC03F2
:1004900000807F00007FFC0100C07F00007FFC0126
:1004A00000C03F00007FFE0100C03F00007FFE0053
:1004B00000E01F00007FFE0000E01F00007FFE0044
:1004C00000F00F00007FFE0000F00F00007FFE0034
:1004D00000F00700007FFE0000F80700007FFE002C
:1004E00000F80700007FFE0000FC0300007FFE0014
:1004F00000FC0300007FFC0100FE0100007FFC0106
:1005000000FE0100007FFC0100FF0000007FFC03F3
:1005100080FF0000007FF807807F0000007FF80F59
:10052000C07F0000007FF01FE03F0000007FF07FF1
:10053000F81F0000007FE0FFFF1F0000007FC0FFEA
:10054000FF0F0000007F80FFFF070000007F00FF1B
:10055000FF030000007F00FEFF010000007F00F8A5
:100560007F000000007F00C01F000000007F00002F
:1005700000000000007F00000000000000000000FC
:1005800000000000000000000000000078000000F3
:1005900000000000FC00000600000000FE01001F3B
:1005A00000000000FF03807F00000000FE0780FFC6
:1005B00001000000FC0FC0FF00000000F80FE07F0A
:1005C00000000000F01FF03F00000000E01FF01FDF
:1005D00000000000C03FF80F00000000C03FF80717
:1005E00000000000807FFC0700000000807FFC030B
:1005F00000000000007FFE0100000000007FFE01FF
:1006000000000000007FFE0000000000007EFE00F1
:1006100000000000007EFE0000000000007E7E0062
:1006200000000000007E7E0000000000007E7E00D2
:1006300000FC0100007E7E0000FC0100007E7E00C8
:1006400000FC0100007E7E0000FC0100007E7E00B8
:1006500000FC0100007F7E0000FC0100007FFE0026
:1006600000FC0100007FFE0000FE0300807FFE0111
:1006700000FE0300807FFE0100FE0300C03FFC037C
:1006800000FF0300C03FFC0F80FF0700E01FF83FA2
:10069000E0FF0F00F01FF0FFFFFF1F00F80FE0FF6B
:1006A000FFFF3F00FE07C0FFFFCFFF80FF0380FF7B
:1006B000FFC7FFFFFF0100FEFF81FFFFFF0000E01B
:1006C0003F00FFFF7F0000000000FCFF1F00000054
:1006D0000000F0FF07000000000080FF00000000A5
:1006E0000000807F000000000000C07F00000000CC
:1006F0000000E07F000000000000F07F000000002C
:100700000000F87F000000000000FE7F00000000F5
:100710000000FF7F000000000080FF7F000000005D
:1007200000C0FF7F0000000000F07F7F000000009D
:1007300000F81F7F0000000000FC0F7F0000000099
:1007400000FE077F0000000000FF037F00000000A4
:10075000C0FF007F00000000E07F007F000000007D
:10076000F03F007F00000000F81F007F0000000045
:10077000FC0F007F00000000FF03007F00000080EE
:10078000FF01007F000000C0FF00007F000000E0CC
:100790007F00007F000000F03F00007F000000FCB1
:1007A0000F00007F000000FE0700007F000000FF38
:1007B0000300007F000080FF0100007F0000E0FFD9
:1007C0000000007F0000F03F0000007F0000F81FE5
:1007D0000000007F0000FC0F0000007F0000FE070B
:1007E0000000007F0000FFFFFFFFFFFFFFFFFFFF94
:1007F000FFFFFFFFFFFFFFFFFFFFFFFFFFFFFFFF09
:10080000FFFFFFFFFFFFFFFFFFFFFFFFFFFF0000F6
:100810000000007F000000000000007F00000000DA
:100820000000007F000000000000007F00000000CA
:100830000000007F000000000000007F00000000BA
:100840000000007F00000000000000000000FFFF2B
:10085000FFFF00C07F00FFFFFFFF0080FF00FFFFE2
:10086000FFFF0000FF01FFFFFFFF0000FE01FFFF91
:10087000FFFF0000FE03FFFFFF7F0000FC073F00BB
:10088000C03F0000F8073F00E03F0000F80F3F00C6
:10089000E01F0000F00F3F00E01F0000E01F3F00DE
:1008A000F00F0000E01F3F00F00F0000C01F3F00EE
:1008B000F0070000C01F3F00F0070000C01F3F000E
:1008C000F0070000801F3F00F8070000801F3F0076
:1008D000F8030000803F3F00F8030000003F3F00A6
:1008E000F8030000003F3F00F8030000003F3F0016
:1008F000F8030000003F3F00F8030000003F3F0006
:10090000F8030000003F3F00F8030000003F3F00F5
:10091000F8030000003F3F00F8030000003F3F00E5
:10092000F0070000801F3F00F0070000801F3F001D
:10093000F0070000801F3F00F00F0000C01F3F00C5
:10094000E00F0000C01F3F00E01F0000E01F3F005D
:10095000C01F0000F01F3F00C03F0000F80F3F0025
:10096000807F0000FC073F0080FF0000FE073F0083
:1009700000FF0380FF033F0000FE0FF0FF013F0078
:1009800000FCFFFFFF003F0000F8FFFF7F000000BA
:1009900000E0FFFF1F00000000C0FFFF0F0000008D
:1009A0000000FFFF010000000000F03F0000000019
:1009B0000000000000000000000000000000000037
:1009C00000FE7F0000000000F0FFFF0F00000000AD
:1009D000FEFFFF7F000000C0FFFFFFFF030000F0ED
:1009E000FFFFFFFF0F0000F8FFF80FFF1F0000FEE2
:1009F0000FF807F07F0000FF03FC03C0FF0080FF3B
:100A000000FE0100FF01C03F00FE0100FE03E01FE9
:100A100000FF0000F807F00F007F0000F00FF8075C
:100A2000807F0000E01FF803803F0000C03FFC0310
:100A3000C03F0000C03FFC01C01F0000807FFC01E0
:100A4000C01F0000007FFE01E01F0000007FFE00CD
:100A5000E00F000000FFFE00E00F000000FEFE00BF
:100A6000E00F000000FEFE00E00F000000FEFE00B0
:100A7000E00F000000FEFE00E00F000000FEFE00A0
:100A8000E00F000000FEFE01E00F000000FEFC0190
:100A9000E01F000000FEFC03C01F0000007FFC03FD
:100AA000C01F0000007FF807C03F0000807FF80FE4
:100AB000807F0000C03FF01F00FF0000E03FE03FEC
:100AC00000FF0100F01FE07F00FE0300F81FC0FFE1
:100AD00000FC0F00FE0F80FF01F83F80FF0700FFC2
:100AE00001F0FFFFFF01007C00C0FFFFFF000018C6
:100AF0000080FFFF3F0000000000FCFF0F0000002F
:100B00000000E0FF00000000000000000000000006
:100B1000000000000000FE00000000000000FE00D9
:100B2000000000000000FE00000000000000FE00C9
:100B3000000000000000FE00000000000000FE00B9
:100B4000000000000000FE00000000000000FE00A9
:100B5000000000000040FE00000000000070FE00E9
:100B600000000000007CFE0000000000007FFE008E
:100B700000000000C07FFE0000000000F07FFE00CB
:100B800000000000FC7FFE0000000000FF3FFE00B0
:100B9000000000C0FF0FFE00000000F0FF03FE0099
:100BA000000000FCFF00FE00000000FF3F00FE0010
:100BB0000000C0FF0F00FE000000F0FF0300FE0079
:100BC0000000FCFF0000FE000000FF3F0000FE00F0
:100BD00000E0FF0F0000FE0000F8FF030000FE0031
:100BE00000FEFF000000FE0080FF3F000000FE004E
:100BF000E0FF0F000000FE00F8FF03000000FE0011
:100C0000FEFF00000000FE80FF3F00000000FEE04D
:100C1000FF0F00000000FEF8FF0300000000FEFED2
:100C2000FF0000000000FEFF3F0000000000FEFF8C
:100C30000F0000000000FEFF030000000000FEFFA8
:100C4000000000000000FE3F000000000000FE0F5A
:100C5000000000000000FE03000000000000FE0095
:100C60000000000000003E000000000000000E0038
:100C70000000000000000200000000000000000072
:100C8000000080FF010000000000F8FF0F000000DE
:100C90000000FEFF3F0000E01F00FFFFFF0000FC20
:100CA000FF80FFFFFF0100FFFFC1FFFFFF0380FF89
:100CB000FFE7FF80FF07C0FFFFFF1F00FC0FE0FF03
:100CC000FFFF0F00F80FF03FF0FF0700E01FF00FED
:100CD000E0FF0300E03FF807C0FF0300C03FF80358
:100CE00080FF0100803FFC0380FF0100807FFC014A
:100CF00000FF0100007FFC0100FF0100007FFE01FA
:100D000000FF000000FFFE0000FE000000FEFE00ED
:100D100000FE000000FEFE0000FE000000FEFE00DF
:100D200000FE000000FEFE0000FE000000FEFE00CF
:100D300000FE000000FEFE0000FE000000FEFE00BF
:100D400000FE000000FEFE0000FE000000FEFE00AF
:100D500000FE000000FEFE0100FF000000FFFC019D
:100D600000FF0100007FFC0100FF0100007FFC0389
:100D700080FF0100807FF80380FF0100803FF807BB
:100D8000C0FF0300C03FF00FE0FF0300C03FF03F93
:100D9000F8FF0700E01FE0FFFFFF0F00F00FC0FFAC
:100DA000FFFF1F00FC0F80FFFFE7FF00FF0700FFB2
:100DB000FFC1FFFFFF0300FCFF80FFFFFF0100E01A
:100DC0001F00FFFFFF0000000000FEFF3F000000CB
:100DD0000000F8FF0F0000000000C0FF010000004D
:100DE0000000000000000000000000000000000003
:100DF0000000000000000000FE0F0000000000E006
:100E0000FF7F0000000000F8FFFF0300300000FE3D
:100E1000FFFF07007C0000FFFFFF1F00FF01C0FF76
:100E200003F83F00FF03E0FF00E07F00FE07F03F14
:100E30000080FF00FC0FF01F0000FF01F80FF80F0B
:100E40000000FE01F01FF8070000FC03E03FFC0378
:100E50000000F807C03FFC010000F007807FFC01A4
:100E60000000F007807FFE000000F00F007FFE0012
:100E70000000E00F00FFFE000000E00F00FEFE009B
:100E80000000E00F00FEFE000000E00F00FEFE008C
:100E90000000E00F00FEFE000000E00F00FEFE007C
:100EA0000000E00F00FEFE010000E00F00FEFC016C
:100EB0000000F00F00FFFC010000F007007FFC03C2
:100EC0000000F007007FF8070000F807807FF807B0
:100ED0000000F803803FF00F0000FC03C03FE01F5C
:100EE0000000FC01E01FC03F0000FE01F00F80FF8A
:100EF0000000FF00F80700FF0100FF00FE0300FEF6
:100F000007807F80FF0100FC1FC03FE0FF0000F072
:100F1000FFE13FFE3F0000E0FFFFFFFF1F000080FA
:100F2000FFFFFFFF07000000FCFFFFFF00000000C5
:100F3000E0FFFF1F0000000000FCFF0000000000B9
:100F40000000000000000000000000000000FF7F23
:100F5000FF7FFF7F0770F777F777F777F777F777F8
:100F6000F777F777F777F777F777F777F777F77711
:100F7000F777F777F777F7770770FF7FFF7FFF7FC8
:100F8000E003E003E003E003FF7FFF7FFF7F0770E4
:100F9000F777F777F777F777F777F777F777F777E1
:100FA000F777F777F777F7770770077007700770AD
:100FB00007700770FF7FFF7FFF7FE003E003E00320
:100FC000E003FF7FFF7FFF7F0770F777F777F77703
:100FD000F777F777F7770770077007700770077074
:100FE0000770077007700770077007700770FF7F42
:100FF000FF7FFF7FE003E003E003E003FFFFFFFF6D
:10100000FFFFFFFFFFFFFFFFFFFFFFFFFFFFFFFFF0
:10101000FFFFFFFFFFFFFFFFFFFFFFFFFFFFFFFFE0
:10102000FFFFFFFFFFFFFFFFFFFFFFFFFFFFFFFFD0
:10103000FFFFFFFFFFFFFFFFFFFFFFFFFFFFFFFFC0
:10104000FFFFFFFFFFFFFFFFFFFFFFFFFFFFFFFFB0
:10105000FFFFFFFFFFFFFFFFFFFFFFFFFFFFFFFFA0
:10106000FFFFFFFFFFFFFFFFFFFFFFFFFFFFFFFF90
:10107000FFFFFFFFFFFFFFFFFFFFFFFFFFFFFFFF80
:10108000FFFFFFFFFFFFFFFFFFFFFFFFFFFFFFFF70
:10109000FFFFFFFFFFFFFFFFFFFFFFFFFFFFFFFF60
:1010A000FFFFFFFFFFFFFFFFFFFFFFFFFFFFFFFF50
:1010B000FFFFFFFFFFFFFFFFFFFFFFFFFFFFFFFF40
:1010C000FFFFFFFFFFFFFFFFFFFFFFFF3FFEFFFFF1
:1010D000FFFFFFFF3FF0FFFFFFFFFFFF3F80FFFF2E
:1010E000FFFFFFFF3F03F0FFFFFFFFFF3F1F80FFFA
:1010F000FFFFFFFF3FFF01F8FFFFFFFF3FFF0F80F4
:10110000FFFFFFFF3FFFFF00F8FFFFFF3FFFFF0F65
:10111000C0FFFFFF3F8FFFFF00FCFFFF3F0FFCFF03
:1011200007C0FFFF3F0FC0FF7F00FEFF3F0F00FC27
:10113000FF0FF0FF3F0F00E0FF7FC0FF3F0F0000F9
:10114000FEFF83FF3F0F0000F0FF0FFF3F7F000017
:1011500000FF1FFF3FFF030000F03FFE3FFF3F0087
:1011600000803FFE3FFFFF0300003EFC3FF8FF3FD3
:1011700000007CFC3F80FFFF01007CFCFF01F8FFCA
:101180003F0078FCFF1F80FFFF0178FCFFFF01FF9D
:10119000FF0778FCFF3F80FFFF0178FCFF0FF0FFA7
:1011A0001F0078FCFF01FEFF01007CFCFFE0FF3F19
:1011B00000003EFC7FF8FF0300003FFE7FFC7F0045
:1011C00000F03FFE3FFE070000FE1FFF3FFE000055
:1011D000E0FF0FFF1F3F0000FEFF83FF1F1F00C047
:1011E000FF3FC0FF1F0F00FCFF03F0FF9F0FC0FF7A
:1011F0007F00FEFF9F0FE0FF7F80FFFF9F0FE0FF5C
:101200007F80FFFF9F0FC0FF7F00FEFF1F0F00FCCE
:10121000FF03F0FF1F1F00C0FF3FC0FF1F3F000084
:10122000FEFF83FF3FFE0000E0FF0FFF3FFE0700D1
:1012300000FE1FFF7FFC7F0000F03FFE7FF8FF03F2
:1012400000003FFEFFE0FF3F00003EFCFF01FEFF0D
:1012500001007CFCFF0FF0FF1F0078FCFF3F80FFC8
:10126000FF0178FCFFFF01FFFF0778FCFF1F80FFF5
:10127000FF0178FCFF01F8FF3F0078FC3F80FFFF93
:1012800001007CFC3FF8FF3F00007CFC3FFFFF03B8
:1012900000003EFC3FFF3F0000803FFE3FFF030099
:1012A00000F03FFE3F7F000000FF1FFF3F0F0000E8
:1012B000F0FF0FFF3F0F0000FEFF83FF3F0F00E036
:1012C000FF7FC0FF3F0F00FCFF0FF0FF3F0FC0FF8D
:1012D0007F00FEFF3F0FFCFF07C0FFFF3F8FFFFFB8
:1012E00000FCFFFF3FFFFF0FC0FFFFFF3FFFFF00BE
:1012F000F8FFFFFF3FFF0F80FFFFFFFF3FFF01F8F9
:10130000FFFFFFFF3F1F80FFFFFFFFFF3F03F0FFD7
:10131000FFFFFFFF3F80FFFFFFFFFFFF3FF0FFFFEB
:10132000FFFFFFFF3FFEFFFFFFFFFFFFFFFFFFFF8E
:10133000FFFFFFFFFFFFFFFFFFFFFFFFFFFFFFFFBD
:10134000FFFFFFFFFFFFFFFFFFFFFFFFFFFFFFFFAD
:10135000FFFFFFFFFFFFFFFFFFFFFFFFFFFFFFFF9D
:10136000FFFFFFFFFFFFFFFFFFFFFFFFFFFFFFFF8D
:10137000FFFFFFFFFFFFFFFFFFFFFFFFFFFFFFFF7D
:10138000FFFFFFFFFFFFFFFFFFFFFFFFFFFFFFFF6D
:10139000FFFFFFFFFFFFFFFFFFFFFFFFFFFFFFFF5D
:1013A000FFFFFFFFFFFFFFFFFFFFFFFFFFFFFFFF4D
:1013B000FFFFFFFFFFFFFFFFFFFFFFFFFFFFFFFF3D
:1013C000FFFFFFFFFFFFFFFFFFFFFFFFFFFFFFFF2D
:1013D000FFFFFFFFFFFFFFFFFFFFFFFFFFFFFFFF1D
:1013E000FFFFFFFFFFFFFFFFFFFFFFFFFFFFFFFF0D
:1013F000FFFFFFFFFFFFFFFFFFFFFFFF11241FBEE7
:10140000CFE5D4E0DEBFCDBF10E0A0E6B0E0EEE96E
:10141000FCE102C005900D92AA37B107D9F710E0A0
:10142000AAE7B0E001C01D92AE37B107E1F704D2E0
:1014300034C4E6C51F920F920FB60F9211242F935A
:101440003F934F935F936F937F938F939F93AF934C
:10145000BF93CF93DF93EF93FF93839B08C085E007
:1014600083BF10927C0081E080937A001FC013BE7E
:1014700010927C0081E088BF10927B0027E040E062
:101480006FE780E091D1C0E0D4E08FEF3BD12197AE
:101490002097D9F791E09093610080917A0088239A
:1014A00029F080916200892780936200FF91EF917B
:1014B000DF91CF91BF91AF919F918F917F916F916C
:1014C0005F914F913F912F910F900FBE0F901F9002
:1014D00018951F920F920FB60F9211242F933F93DE
:1014E0004F935F936F937F938F939F93AF93BF932C
:1014F000CF93DF93EF93FF9380917C0091E0980F5F
:1015000090937C0090916300992309F4ABC08451BF
:101510008930B0F580917B00811132C0109261005A
:1015200027E040E060E440D1CCEFDFE0FE018491B1
:10153000E9D02196F1E1CC3FDF07C1F727E044E095
:101540006FE380E031D1C0E0D1E08FEFDBD02197B5
:101550002097D9F727E040E06FE780E425D1C0E08D
:10156000D2E08FEFCFD021972097D9F727E040E046
:101570006FE780E019D180917B008F5F80937B00C3
:1015800080917C008F51893058F580917B008130AB
:1015900039F51092610027E040E060E480E004D17A
:1015A000CCEFDFE0FE018491ADD02196F1E1CC3F9C
:1015B000DF07C1F727E040E06FE780E4F5D0C0E047
:1015C000D2E08FEF9FD021972097D9F727E040E016
:1015D0006FE780E0E9D080917B008F5F80937B0094
:1015E00080917C008952893030F580917B00823077
:1015F00011F510926100CCEFDFE0FE01849182D002
:101600002196F3E1CC3FDF07C1F723E040E06FE72D
:1016100080E4CAD0C0E0D1E08FEF74D0219720974A
:10162000D9F727E040E06FE780E0BED080917B00F3
:101630008F5F80937B0080917C008353893090F48E
:1016400080917B00833071F410926100CCEFDFE079
:10165000FE01849157D02196F3E1CC3FDF07C1F71B
:1016600010927B0080917C008E3360F180917A0033
:10167000882341F18091630091E089278093630082
:1016800010927A00882389F041D027E040E06FE78C
:1016900080E08AD0C0E0D4E08FEF34D0219720974B
:1016A000D9F781E0809361000BC0969888E08A9515
:1016B000F1F7969AE8E0EA95F1F797988EEA1DD04F
:1016C00010926200FF91EF91DF91CF91BF91AF91A6
:1016D0009F918F917F916F915F914F913F912F914A
:1016E0000F900FBE0F901F90189587B38C6287BB29
:1016F00080E58DB981E08EB908958FB9779BFECFD3
:101700008FB10895979AF9CF9798F7CF81B3806CEE
:1017100081BBEBDFC298969888E08A95F1F7969A9C
:1017200088E08A95F1F797988EEAE7DF85EDECDFA0
:1017300080E8EADF88EAE8DF8FE3E6DF83EDE4DFD5
:1017400080E0E2DF979880E4D8DF8DE8DDDF84E198
:10175000DBDF80EAD9DF80ECD7DF8AEDD5DF82E1FD
:10176000D3DF81E8D1DF8FEFCFDF89EDCDDF81EFF0
:10177000CBDF8BEDC9DF80E3C7DF84EAC5DF87EA13
:10178000C3DF80E2C1DF81E0BFDF81E2BDDF80E057
:10179000BBDF8FE7B9DF82E2B7DF80E0B5DF87E04C
:1017A000B3DF97988FEAA9CF1F93CF93DF9300D031
:1017B0001F92CDB7DEB7182F979881E22B834A830B
:1017C0006983A2DF812FA0DF6981862F9DDF82E2FE
:1017D0009BDF4A81842F98DF2B81822F0F900F90FF
:1017E0000F90DF91CF911F918FCF82E087BB80E870
:1017F00086B981E88FBD81E08EBD1BBC1ABC85B760
:10180000846085BF8BB780688BBF789481E089BF87
:1018100088E08AB986E880BD10BC83E389B9089561
:10182000806E87B98AE18A95F1F700C0369A349BB9
:10183000FECF329A85B10895CF93DF93CDB7DEB74F
:101840006C970FB6F894DEBF0FBECDBF86E1E4E61D
:10185000F0E0DE01119601900D928A95E1F78FEF8D
:101860008F8B888F898FC1DF51DF2FEF40E752E0E8
:10187000215040405040E1F700C000000CEF1FE055
:10188000F80184913FDF0F5F1F4FF3E10C3F1F070B
:10189000B9F72FEF4EE954E2215040405040E1F7B4
:1018A00000C0000027E040E06FE780E07DDF00E05F
:1018B00014E08FEF27DF0150110901151105C9F759
:1018C000F12C312C00E010E0212C412C512C68E649
:1018D000C62EDD24D39473E0A72EB12CE5E08E2E26
:1018E000912CF4E16F2E712C80E09ADF8A8FF894AE
:1018F00080916100882309F4F9C0332009F1FF20A9
:1019000071F021E040E06FE782E64EDF5A8D5D3FE7
:1019100008F4A5C04EE4E42E4FE0F42E91C027E079
:1019200040E06FE780E040DFE12C54E0F52E8FEFE0
:10193000E9DE61E0E61AF108E114F104C1F7E1CF54
:1019400027E040E06DE280E02FDF852D64E665D181
:10195000682FA60164039001659F300D1124E12CCE
:10196000F12C225C3E4FF901EE0DFF1D8491809514
:101970002B8F3C8FC7DE8FEFE81AF80A2B8D3C8D3A
:1019800098E6E91691E0F90671F727E040E06AE58C
:101990008EE20ADF2AE0852D622F3FD1622F3DD1F2
:1019A000692FA70164039001659F300D1124E12C7C
:1019B000F12C225C3E4FF901EE0DFF1D84918095C4
:1019C0002B8F3C8F9FDE8FEFE81AF80A2B8D3C8D12
:1019D00098E6E91691E0F90671F727E047E062E63C
:1019E0008EE5E2DE8FE08EDE8FE08CDE8FE08ADE39
:1019F0008FE088DE27E043E06FE783E6D5DE852DC4
:101A00006AE00BD1892F65E008D1482F5CE84503D7
:101A100090011124E12CF12C2A5D3F4FF901EE0DCC
:101A2000FF1D849180952B8F3C8F6CDE6FEFE61A43
:101A3000F60A2B8D3C8D8CE8E816F10479F761CF1E
:101A400028E8E2162FE0F20641F0F7018491809534
:101A500059DEFFEFEF1AFF0AF3CFE12C40C05A8D99
:101A6000593F88F038E8E32E3FE0F32E22ECE216EF
:101A70002FE0F20691F3F7018491809543DEFFEFAA
:101A8000EF1AFF0AF3CF5A8D513F20F0332039F07F
:101A9000563F28F422ECE22E2FE0F22E11C092ECF9
:101AA000E92E9FE0F92E2CEFE2162FE0F206A9F2C4
:101AB000F7018491809526DEFFEFEF1AFF0AF3CF3E
:101AC0002CEFE2162FE0F20641F0F70184918095A9
:101AD00019DEFFEFEF1AFF0AF3CFEE24E39427E0BD
:101AE00040E06FE780E060DEF32C3E2C7894EE243B
:101AF000E394E20C87E094DEE7E1F0E0EC0FFD1FF9
:101B0000E20DF11D80834E2D4370242E4F89888D68
:101B1000398D829B0BC015144CF4411007C05BEF4C
:101B2000550E92E09093600044244394849B0CC033
:101B30006DE665154CF0411007C095E0590E94E034
:101B40009093600044244394829908C0849906C00D
:101B500010927D009FEF90936000412C20916000D7
:101B60001216B4F490917D009F5F953118F4909314
:101B70007D000EC010927D00223029F4151444F42B
:101B8000EBEF5E0E05C0FDE6F51524F025E0520EE4
:101B9000552059F190E0840F911D830F911DB501DF
:101BA00049D09B01852D992787FD9095B40142D09E
:101BB0006C0F7D1FFB018081281B3109C901B30116
:101BC00039D0060F171F013F110514F000EF10E088
:101BD000B901600F711F660F771F6F3F710519F014
:101BE00014F06FEF70E077FF02C060E070E080916A
:101BF0006200882349F080916300882329F0311026
:101C000003C07BBD6ABD02C01BBC1ABC8FE097E25B
:101C10000197F1F700C0000067CE87FB082E06266B
:101C200087FD819567FD619518D00EF4919507FCAD
:101C30008195089597FB072E16F4009406D077FD42
:101C400008D017D007FC05D03EF4909581959F4FA2
:101C50000895709561957F4F0895991B79E004C0B0
:101C6000991F961708F0961B881F7A95C9F78095DB
:101C70000895AA1BBB1B51E107C0AA1FBB1FA617D3
:101C8000B70710F0A61BB70B881F991F5A95A9F725
:0E1C900080959095BC01CD010895F894FFCF8A
:101C9E00FF010101FFFFFFBBB2AAA59E8C827C70E3
:0A1CAE00695D55473E33281C07000E
:00000001FF
